:100000000C9438000C9455000C9455000C94550039
:100010000C9455000C9455000C9455000C9455000C
:100020000C9455000C9455000C9455000C945500FC
:100030000C9455000C9455000C9455000C945500EC
:100040000C9455000C9455000C9455000C945500DC
:100050000C9455000C9455000C9455000C945500CC
:100060000C9455000C9455000C9455000C945500BC
:1000700011241FBECFEFD4E0DEBFCDBF12E0A0E061
:10008000B1E0EEE6F1E102C005900D92A633B107B2
:10009000D9F722E0A6E3B2E001C01D92AC33B2076B
:1000A000E1F70E9457000C94B5080C94000000D0B2
:1000B00000D0CDB7DEB7B89A0E94ED00E6E3F2E0DB
:1000C00080E091E091838083938382830E940A0180
:1000D0000E94A4010F2EF6E18F2EF1E09F2EF02D4D
:1000E0000F2EFDE1AF2EF1E0BF2EF02D0F2EF4E22A
:1000F000CF2EF1E0DF2EF02D0F2EF5E3EF2EF1E005
:10010000FF2EF02D03E411E0E0911001F0911101B8
:1001100021E0208388E18A95F1F700C080E090E03B
:100120000E94AC01582E81E090E00E94AC01382E74
:1001300082E090E00E94AC01898383E090E00E941D
:10014000AC010E94E301782E692E89810E9426026B
:100150008B839C83852D0E949F02582E492E832DD0
:100160000E949F0289839A836B817C81872D962DC3
:100170000E946902382E292E6F927F929F928F9251
:100180000E944A059C819F932B812F93BF92AF922F
:100190000E944A052F923F92DF92CF920E944A0519
:1001A0004F925F92FF92EF920E944A058A818F934D
:1001B00099819F931F930F930E944A052FEF8FEF12
:1001C0009EE0215080409040E1F700C000000FB653
:1001D000F894DEBF0FBECDBF97CF10BC8FE189B9B9
:1001E00088E18AB98EE880BD59980895CF93C82FC9
:1001F0008A3039F05D9BFECFCCB980E090E0CF91A2
:1002000008958DE00E94F600F5CF5F9BFECF8CB184
:1002100090E0089585B7806885BF80B7877880BFF4
:1002200080B7806280BF0895CF92DF92EF92FF92F5
:100230000F931F93CF93DF9381E591E00E946005B8
:100240000E943A05C82ED92E0E943F0500E010E01A
:10025000C0E0D0E00F2EF7E6EF2EF1E0FF2EF02DFC
:1002600006C00F5F1F4F011598E01907F9F00E94B3
:100270003A05282F392FF801F85E8083408148170E
:1002800081F333273F932F931F924F931F930F9325
:10029000FF92EF920E944A0521968DB79EB708966D
:1002A0000FB6F8949EBF0FBE8DBFDBCF8C2D9D2D5A
:1002B0000E943F05C12CD12C00E010E00F2EF0EA87
:1002C000EF2EF1E0FF2EF02D07C09FEFC91AD90ADB
:1002D000C11488E0D806F9F00E943A05282F392F7A
:1002E000F601F85E8081821781F333273F932F93C5
:1002F0001F928F93DF92CF92FF92EF920E944A0556
:100300000F5F1F4F8DB79EB708960FB6F8949EBF2C
:100310000FBE8DBFDACF1F930F93DF93CF938DED79
:1003200091E09F938F930E944A050F900F900F903A
:100330000F900F900F90DF91CF911F910F91FF9031
:10034000EF90DF90CF9008958D9A8FB580648FBD28
:100350008EB589608EBD0895CF93DF930F92CDB790
:10036000DEB72091100130911101280F391FF901DA
:100370008081898389810F90DF91CF910895682FC3
:1003800070E080E090E00E94F30320E030E040E87D
:100390005BE30E94810420E030E040EA50E40E94E8
:1003A0008104089520E030E040E250E40E94DE0243
:1003B0002FE832EC45E75CE30E944B030E94BD034B
:1003C000862F972F0895682F70E080E090E00E94BC
:1003D000F30320E030E040E85BE30E94810420E08A
:1003E00030E040EA50E40E94810420E030E040E246
:1003F00050E40E94DE022FE832EC45E75CE30E9405
:100400004B030E94BD03462F572FBA016053710959
:100410006115710579F074F084E6869F9001879FDD
:10042000300D1124C90161E770E00E94B602213746
:10043000310554F424E6269FC001279F900D112416
:100440006EE770E00E94B602CB010895682F70E05D
:1004500080E090E00E94F30320E030E040E85BE3BE
:100460000E94810420E030E040EA50E40E948104D0
:1004700020E030E040E250E40E94DE022FE832EC5F
:1004800045E75CE30E944B030E94BD03462F572FB4
:10049000BA016E5271096115710579F074F084E644
:1004A000869F9001879F300D1124C90163E770E09A
:1004B0000E94B6022337310554F424E6269FC0017A
:1004C000279F900D112469E770E00E94B602CB01CE
:1004D0000895282F392F862F972FA901462B572BA8
:1004E000452B09F1A90133237CF084179507F4F417
:1004F000BC01992374F06417750784F09923CCF03C
:1005000062177307CCF0089544275527421B530BFD
:10051000ECCF66277727681B790BEDCF332384F761
:1005200081E090E0089580E090E0089583E090E01D
:10053000089584E090E0089582E090E00895682FA7
:1005400070E080E090E00E94F30320E030E040E8BB
:100550005BE30E94810420E030E048EC52E40E941A
:1005600081040E94BD03862F972F089597FB072EC5
:1005700016F4009407D077FD09D00E94CA0207FC48
:1005800005D03EF4909581959F4F089570956195A3
:100590007F4F0895AA1BBB1B51E107C0AA1FBB1FB9
:1005A000A617B70710F0A61BB70B881F991F5A95FF
:1005B000A9F780959095BC01CD0108955058BB27AF
:1005C000AA270E94F6020C9447040E94390438F0CE
:1005D0000E94400420F039F49F3F19F426F40C9453
:1005E00036040EF4E095E7FB0C943004E92F0E94EA
:1005F000580458F3BA17620773078407950720F069
:1006000079F4A6F50C947A040EF4E0950B2EBA2F2B
:10061000A02D0B01B90190010C01CA01A001112408
:10062000FF27591B99F0593F50F4503E68F11A16B4
:10063000F040A22F232F342F4427585FF3CF469545
:1006400037952795A795F0405395C9F77EF41F1667
:10065000BA0B620B730B840BBAF09150A1F0FF0F31
:10066000BB1F661F771F881FC2F70EC0BA0F621F1D
:10067000731F841F48F4879577956795B795F7950D
:100680009E3F08F0B0CF9395880F08F09927EE0FA2
:100690009795879508950E945F030C9447040E94E4
:1006A000400458F00E94390440F029F45F3F29F0DB
:1006B0000C94300451110C947B040C9436040E9469
:1006C000580468F39923B1F3552391F3951B550B07
:1006D000BB27AA2762177307840738F09F5F5F4F15
:1006E000220F331F441FAA1FA9F335D00E2E3AF054
:1006F000E0E832D091505040E695001CCAF72BD06C
:10070000FE2F29D0660F771F881FBB1F26173707BC
:100710004807AB07B0E809F0BB0B802DBF01FF27EE
:1007200093585F4F3AF09E3F510578F00C94300497
:100730000C947B045F3FE4F3983ED4F38695779561
:100740006795B795F7959F5FC9F7880F911D9695A7
:10075000879597F90895E1E0660F771F881FBB1F03
:10076000621773078407BA0720F0621B730B840BB0
:10077000BA0BEE1F88F7E09508950E94C4036894B1
:10078000B1110C947B0408950E94600488F09F5777
:1007900098F0B92F9927B751B0F0E1F0660F771FA5
:1007A000881F991F1AF0BA95C9F714C0B13091F09B
:1007B0000E947A04B1E008950C947A04672F782F90
:1007C0008827B85F39F0B93FCCF386957795679560
:1007D000B395D9F73EF490958095709561957F4FCC
:1007E0008F4F9F4F0895E89409C097FB3EF4909572
:1007F0008095709561957F4F8F4F9F4F9923A9F0FA
:10080000F92F96E9BB279395F69587957795679588
:10081000B795F111F8CFFAF4BB0F11F460FF1BC0CC
:100820006F5F7F4F8F4F9F4F16C0882311F096E95F
:1008300011C0772321F09EE8872F762F05C066230D
:1008400071F096E8862F70E060E02AF09A95660FC6
:10085000771F881FDAF7880F9695879597F908957F
:1008600097F99F6780E870E060E008959FEF80EC63
:10087000089500240A941616170618060906089506
:1008800000240A9412161306140605060895092E6C
:100890000394000C11F4882352F0BB0F40F4BF2BDB
:1008A00011F460FF04C06F5F7F4F8F4F9F4F08951B
:1008B00057FD9058440F551F59F05F3F71F0479511
:1008C000880F97FB991F61F09F3F79F087950895F6
:1008D000121613061406551FF2CF4695F1DF08C015
:1008E000161617061806991FF1CF86957105610532
:1008F00008940895E894BB2766277727CB0197F9DA
:1009000008950E9494040C9447040E94390438F01E
:100910000E94400420F0952311F00C9430040C94B4
:10092000360411240C947B040E94580470F3959FA4
:10093000C1F3950F50E0551F629FF001729FBB27D6
:10094000F00DB11D639FAA27F00DB11DAA1F649F72
:100950006627B00DA11D661F829F2227B00DA11D25
:10096000621F739FB00DA11D621F839FA00D611DAB
:10097000221F749F3327A00D611D231F849F600DCC
:10098000211D822F762F6A2F11249F5750409AF0F5
:10099000F1F088234AF0EE0FFF1FBB1F661F771F81
:1009A000881F91505040A9F79E3F510580F00C944C
:1009B00030040C947B045F3FE4F3983ED4F38695B7
:1009C00077956795B795F795E7959F5FC1F7FE2BEC
:1009D000880F911D9695879597F908958F929F920C
:1009E000AF92BF92CF92DF92EF92FF92CF93DF93BD
:1009F000EC01688179818A819B816115710581058E
:100A0000910521F464E279ED8BE597E02DE133EF78
:100A100041E050E00E941B0849015A019B01AC01D2
:100A2000A7EAB1E40E943A086B017C01ACEEB4EF96
:100A3000A50194010E944808DC01CB018C0D9D1D8D
:100A4000AE1DBF1DB7FF03C00197A109B048888341
:100A50009983AA83BB839F77DF91CF91FF90EF901B
:100A6000DF90CF90BF90AF909F908F9008950E949D
:100A7000EE04089582E191E00E94EE040895A0E062
:100A8000B0E08093120190931301A0931401B093EE
:100A900015010895A0E0B0E0E0E5F5E00C945D08F4
:100AA000AE014B5F5F4FFA0161917191AF0180918F
:100AB0003802909139020E948C05E2E00C9479088A
:100AC0000F931F93CF93DF93E0913802F091390297
:100AD000238100E010E021FD0EC00FEF1FEFC801E1
:100AE000DF91CF911F910F9108950995892B11F0F6
:100AF0000FEF1FEFCE01EC018991609138027091E8
:100B00003902DB011896ED91FC918111EECF8AE05C
:100B10000995892B21F3E1CFABE0B0E0E2E9F5E004
:100B20000C9450086C017B018A01FC01178216822B
:100B3000838181FFD9C19AE0592EF6012381F70103
:100B400023FD859123FF81917F01811509F41FC148
:100B5000853239F423FD959123FF91917F019532E0
:100B600029F4B60190E00E948D07E7CF30E0912C88
:100B7000612C712CF0E27F1640F59B32D9F058F4CD
:100B80009032D1F09332F1F09E3299F576FCFFC0AD
:100B9000689476F806C09D3291F09033C1F4689461
:100BA00070F8F70123FD959123FF91917F01911139
:100BB000E1CF29C0689471F8689472F8F2CF689414
:100BC00073F8EFCF689474F8ECCF77FC1CC080ED1D
:100BD000890F8A30C8F676FE05C0959C800D1124D9
:100BE000982EDFCF659C800D1124682E689475F8CF
:100BF000D8CF9C3619F4689477F8D3CF9C3409F495
:100C00004BC0983671F2892F8F7D8554833008F45C
:100C100045C0933609F466C0933709F469C093352B
:100C200009F475C0943619F0993609F09FC0F8019F
:100C300077FE95C061917191819191918F01272DDE
:100C40002F76822E97FF09C09095809570956195BB
:100C50007F4F8F4F9F4F689487F82AE030E0AE01B6
:100C60004F5F5F4F5A010E94BD078A19A82E86FE6A
:100C7000C4C0882D8E7FA91408F0BEC084FE11C1A7
:100C800082FC05C1F82DFE7E8F2EB92C882D86782A
:100C9000811509F4BFC000C131E083CF3115F9F0EF
:100CA000085F1F4F8FE3898388248394912CAE01C2
:100CB0004F5F5F4F5A01E89477F873FC03C08614C6
:100CC0009104B0F181149104D1F5611409F435CF88
:100CD000B60180E290E00E948D076A94F6CF0C5F27
:100CE0001F4FE0CFF801808189830E5F1F4FDCCF5B
:100CF000F801A190B1908F01692D70E076FC02C0DF
:100D00006FEF7FEFC5010E9482074C01D4CFF8013D
:100D1000A190B1908F01692D70E076FC02C06FEF59
:100D20007FEFC5010E9477074C01689477F8C5CF23
:100D3000B60180E290E00E948D076A94C0CFF50171
:100D400077FC859177FE81915F01B60190E00E946A
:100D50008D0761106A94F1E08F1A9108B3CF619109
:100D60007191072E000C880B990B68CF872CE894A3
:100D700084F82AE030E0953739F1572D597F852ED8
:100D8000903799F058F49835A9F09F36D9F0F601CC
:100D9000868197812B96EFE00C946C089837B9F711
:100DA00074FC05C020E130E00FC0689484F86894BA
:100DB00082F8F8CF74FE03C0872D8660882E20E16C
:100DC00032E002C028E030E0F80187FE10C06191F7
:100DD0007191819191918F01FE0131965F01AF0177
:100DE0000E94BD078A19A82EE89487F840CF619128
:100DF000719180E090E0EFCF882EBA2C84FE46CF30
:100E0000FE01EA0DF11D8081803309F043C0282DD9
:100E1000297E822E83FC0EC080FE4FC09A2CB61411
:100E200018F4960C9B18B62C862D8B196B1408F4AD
:100E300080E0B80EB61408F042C06B1884FE41C0C2
:100E4000B60180E390E00E948D0782FE09C088E52C
:100E500090E081FC02C088E790E0B6010E948D0717
:100E6000A914D8F1AA94B12C4FEFA41AB40ACE0158
:100E700001964C01A80EB91EF50182915F01B601E1
:100E800090E00E948D078A149B04B1F71ECFB92C05
:100E9000882EB6CF82FC02C0B394BCCFB394B39477
:100EA000B9CFB92C882EF2CEB60180E290E00E9434
:100EB0008D0773947614C0F3B7CF7B2CFBCF612CD6
:100EC000BDCF882D8678811559F280E281FC8BE2B6
:100ED00087FC8DE2B60190E0C1CFB60180E390E0DF
:100EE0000E948D079A94BCCF8FEF9FEF53CFFC01E8
:100EF0000590615070400110D8F7809590958E0F45
:100F00009F1F0895FC016150704001900110D8F7B7
:100F1000809590958E0F9F1F08950F931F93CF93E9
:100F2000DF93182F092FEB018B8181FD09C01FEF83
:100F30000FEF812F902FDF91CF911F910F91089587
:100F400082FF14C02E813F818C819D812817390733
:100F50003CF4E881F981CF0101969983888310835D
:100F60008E819F8101969F838E83E3CFE885F985EB
:100F7000812F0995892BA1F3DACFFA01AA2728300E
:100F800051F1203181F1E8946F936E7F6E5F7F4F56
:100F90008F4F9F4FAF4FB1E03ED0B4E03CD0670FD2
:100FA000781F891F9A1FA11D680F791F8A1F911D25
:100FB000A11D6A0F711D811D911DA11D20D009F475
:100FC00068943F912AE0269F11243019305D3193B7
:100FD000DEF6CF010895462F4770405D4193B3E0A0
:100FE0000FD0C9F7F6CF462F4F70405D4A3318F047
:100FF000495D31FD4052419302D0A9F7EACFB4E0F8
:10100000A6959795879577956795BA95C9F70097AF
:101010006105710508959B01AC010A2E0694579550
:10102000479537952795BA95C9F7620F731F841FA7
:10103000951FA01D0895052E97FB1EF400940E9495
:10104000320857FD07D00E94840807FC03D04EF4F5
:101050000C94320850954095309521953F4F4F4F55
:101060005F4F089590958095709561957F4F8F4F54
:101070009F4F08950E94A608A59F900DB49F900DC4
:10108000A49F800D911D11240895B7FF0C943A0878
:101090000E943A08821B930B08952F923F924F9221
:1010A0005F926F927F928F929F92AF92BF92CF92F8
:1010B000DF92EF92FF920F931F93CF93DF93CDB701
:1010C000DEB7CA1BDB0B0FB6F894DEBF0FBECDBF79
:1010D00009942A88398848885F846E847D848C844A
:1010E0009B84AA84B984C884DF80EE80FD800C8153
:1010F0001B81AA81B981CE0FD11D0FB6F894DEBF36
:101100000FBECDBFED010895A1E21A2EAA1BBB1B95
:10111000FD010DC0AA1FBB1FEE1FFF1FA217B307C3
:10112000E407F50720F0A21BB30BE40BF50B661FD9
:10113000771F881F991F1A9469F76095709580959D
:1011400090959B01AC01BD01CF010895A29FB00114
:10115000B39FC001A39F700D811D1124911DB29FEB
:0E116000700D811D1124911D0895F894FFCF8C
:10116E000000000300000000F6000501000000185A
:10117E00001001000000783A2025690A00793A2013
:10118E0025690A0020646972656374696F6E203A7E
:10119E002025640A007820736C696465723A2025F4
:1011AE00690A007920736C696465723A2025690AB0
:1011BE00005374617274696E67205352414D2074EE
:1011CE006573742E2E2E00577269746520706861D7
:1011DE007365206572726F723A206578745F726102
:1011EE006D5B2534645D203D2025303258202873F8
:1011FE00686F756C642062652025303258290A00AC
:10120E0052657472696576616C20706861736520D1
:10121E006572726F723A206578745F72616D5B25CC
:10122E0034645D203D2025303258202873686F7558
:10123E006C642062652025303258290A00535241D1
:10124E004D207465737420636F6D706C6574656486
:10125E002077697468200A253464206572726F7273
:10126E007320696E2077726974652070686173658A
:10127E0020616E64200A253464206572726F727369
:10128E0020696E2072657472696576616C20706873
:06129E006173650A0A00FD
:00000001FF
