:100000000C9460030C947D030C947D030C947D038D
:100010000C947D030C947D030C947D030C947D0360
:100020000C947D030C947D030C947D030C947D0350
:100030000C947D030C947D030C947D030C947D0340
:100040000C947D030C947D030C947D030C947D0330
:100050000C947D030C947D030C947D030C947D0320
:100060000C947D030C947D030C947D030C947D0310
:1000700000000000005C00000C000C007C287C28C4
:1000800058DC68002410480028542840000C000068
:10009000007884008478000054385400107C1000EC
:1000A00080400000101010000040000060100C00A4
:1000B00038543800487C40004864580044542C00B0
:1000C0001C107C005C5424003854240064140C0080
:1000D00068542C0048543800004800008048000054
:1000E0001028440028282800442810000454080040
:1000F00038445C00781478007C5428003844280088
:100100007C4438007C5444007C140400384474005F
:100110007C107C00447C440020403C007C106C003F
:100120007C4040007C187C0078103C00384438004B
:100130007C1408003844B8007C146800485424003B
:10014000047C04007C407C003C603C007C307C00F3
:100150006C106C000C700C0064544C00007C44006B
:100160000C106000447C00000804080080808000BF
:1001700000040800304878007C48300030484800CF
:1001800030487C00306850001078140090A8780047
:100190007C08700050744000808074007C106800FF
:1001A000447C4000781078007808700030483000B7
:1001B000F82810003048F80078100800505828003F
:1001C000083C4800384078003840380078207800F3
:1001D0004830480098A0780048685800107884009B
:1001E000007C00008478100008040804000000006F
:1001F0000000005F00000007000700147F147F1458
:10020000242A7F2A1223130864623649552250009B
:1002100005030000001C2241000041221C00082AA6
:100220001C2A0808083E080800503000000808088A
:100230000808006060000020100804023E51494593
:100240003E00427F400042615149462141454B31C9
:100250001814127F1027454545393C4A4949300159
:10026000710905033649494936064949291E0036B0
:100270003600000056360000000814224114141401
:10028000141441221408000201510906324979412F
:100290003E7E1111117E7F494949363E414141223E
:1002A0007F4141221C7F494949417F090901013EA3
:1002B000414151327F0808087F00417F41002040C2
:1002C000413F017F081422417F404040407F0204AB
:1002D000027F7F0408107F3E4141413E7F090909AA
:1002E000063E4151215E7F09192946464949493157
:1002F00001017F01013F4040403F1F2040201F7F00
:100300002018207F631408146303047804036151E8
:1003100049454300007F4141020408102041417FCC
:100320000000040201020440404040400001020479
:100330000020545454787F4844443838444444207E
:10034000384444487F3854545418087E0901020840
:100350001454543C7F0804047800447D400020403D
:10036000443D00007F10284400417F40007C041879
:1003700004787C0804047838444444387C14141409
:1003800008081414187C7C080404084854545420A9
:10039000043F4440203C4040207C1C2040201C3C2A
:1003A0004030403C44281028440C5050503C446499
:1003B000544C44000836410000007F0000004136E4
:1003C000080002010302010000000000000000001C
:1003D000065F5F0600000000070700070700001423
:1003E0007F7F147F7F1400242E6B6B3A120000462F
:1003F0006630180C666200307A4F5D377A48000428
:1004000007030000000000001C3E634100000000E4
:1004100041633E1C000000082A3E1C1C3E2A0808BE
:10042000083E3E0808000000A0E060000000000850
:100430000808080808000000006060000000006074
:1004400030180C060301003E7F594D7F3E000042EC
:10045000427F7F40400000627359496F660000226E
:100460006349497F360000181C16137F7F10002750
:100470006745457D3900003C7E4B497930000003DB
:100480006371190F070000367F49497F3600000667
:100490004F49693F1E000000006C6C000000000026
:1004A000A0EC6C00000000081C3663410000001442
:1004B00014141414140000004163361C08000002D8
:1004C0000351590F0600003E7F415D5D1F1E007CF9
:1004D0007E13137E7C0000417F7F49497F36001CDC
:1004E0003E634141632200417F7F41637F1C0041A5
:1004F0007F7F495D416300417F7F491D0103001CEF
:100500003E6341517372007F7F08087F7F000000C7
:10051000417F7F41000000307040417F3F0100413A
:100520007F7F081C776300417F7F41406070007FC0
:100530007F060C067F7F007F7F060C187F7F001CE4
:100540003E6341633E1C00417F7F49090F06001E48
:100550003F21717F5E0000417F7F19396F46002681
:10056000674D597B32000003417F7F410300007FCC
:100570007F40407F7F00001F3F60603F1F00007F83
:100580007F3018307F7F0063771C081C776300077B
:100590004F78784F0700006773594D47637100002B
:1005A0007F7F41410000000103060C18306000000D
:1005B00041417F7F000000080C0603060C08008004
:1005C000808080808080800000030704000000207D
:1005D0007454543C784000413F7F44447C38003898
:1005E0007C44446C280000307848493F7F40003804
:1005F0007C54545C180000487E7F49030200009838
:10060000BCA4A4F87C0400417F7F08047C7800002F
:10061000447D7D4000000040C484FD7D0000004119
:100620007F7F10386C440000417F7F400000007CD9
:100630007C0C180C7C78007C7C04047C78000038EE
:100640007C44447C38000084FCF8A4243C18001846
:100650003C24A4F8FC8400447C78441C1800004826
:100660005C54547424000000043E7F442400003C89
:100670007C40403C7C40001C3C60603C1C00003CDA
:100680007C6030607C3C00446C3810386C44009CCA
:10069000BCA0A0FC7C00004C64745C4C64000008AE
:1006A000083E7741410000000000777700000041DC
:1006B00041773E0808000002030103020301000025
:1006C00011241FBECFEFD4E0DEBFCDBF12E0A0E00B
:1006D000B1E0E2EAFCE102C005900D92AA34B10754
:1006E000D9F722E0AAE4B2E001C01D92A035B2071A
:1006F000E1F70E947F030C944F0E0C940000B89A0F
:100700000E949703EAE4F2E080E091E09183808325
:10071000938382830E94B4030E944E040E94A60524
:100720000E9448060E94390780E090E0089510BCBE
:100730008FE189B988E18AB98EE880BD599808951A
:10074000CF93C82F8A3039F05D9BFECFCCB980E0C3
:1007500090E0CF9108958DE00E94A003F5CF5F9BBC
:10076000FECF8CB190E0089585B7806885BF80B7D3
:10077000877880BF80B7806280BF0895CF92DF9274
:10078000EF92FF920F931F93CF93DF9384E291E058
:100790000E94FA0A0E94D40AC82ED92E0E94D90AB1
:1007A00000E010E0C0E0D0E00F2EFAE3EF2EF1E021
:1007B000FF2EF02D06C00F5F1F4F011598E019079F
:1007C000F9F00E94D40A282F392FF801F85E8083AF
:1007D0004081481781F333273F932F931F924F9304
:1007E0001F930F93FF92EF920E94E40A21968DB718
:1007F0009EB708960FB6F8949EBF0FBE8DBFDBCF95
:100800008C2D9D2D0E94D90AC12CD12C00E010E026
:100810000F2EF3E7EF2EF1E0FF2EF02D07C09FEF34
:10082000C91AD90AC11488E0D806F9F00E94D40A7E
:10083000282F392FF601F85E8081821781F3332744
:100840003F932F931F928F93DF92CF92FF92EF925D
:100850000E94E40A0F5F1F4F8DB79EB708960FB630
:10086000F8949EBF0FBE8DBFDACF1F930F93DF9317
:10087000CF9380EB91E09F938F930E94E40A0F90B7
:100880000F900F900F900F900F90DF91CF911F91CD
:100890000F91FF90EF90DF90CF9008958D9A8FB5D4
:1008A00080648FBD8EB589608EBD0895CF93DF9330
:1008B0000F92CDB7DEB72091100130911101280FB2
:1008C000391FF9018081898389810F90DF91CF9150
:1008D0000895682F70E080E090E00E940E0920E00B
:1008E00030E040E85BE30E94C00920E030E040EAED
:1008F00050E40E94C009089520E030E040E250E456
:100900000E94F4072FE832EC45E75CE30E9466089A
:100910000E94D808862F972F0895682F70E080E0F6
:1009200090E00E940E0920E030E040E85BE30E9486
:10093000C00920E030E040EA50E40E94C00920E015
:1009400030E040E250E40E94F4072FE832EC45E743
:100950005CE30E9466080E94D808462F572F405338
:10096000510941155105A9F0A4F024E6249FC001C6
:10097000259F900D112485392CE29207DCF48137F4
:100980009105DCF061E770E00E94CC07862F972F7D
:10099000089584E6849F9001859F300D1124C9013C
:1009A00062E870E00E94CC07862F972F273B3C4CD3
:1009B0003CF0089584E690E0089580E090E008958A
:1009C0008CE99FEF0895682F70E080E090E00E942E
:1009D0000E0920E030E040E85BE30E94C00920E01F
:1009E00030E040EA50E40E94C00920E030E040E2FC
:1009F00050E40E94F4072FE832EC45E75CE30E94E4
:100A000066080E94D808462F572F4E5251094115AB
:100A10005105A9F0A4F024E6249FC001259F900D64
:100A200011248F352DE29207DCF483379105DCF039
:100A300063E770E00E94CC07862F972F089584E625
:100A4000849F9001859F300D1124C9016AE770E0F1
:100A50000E94CC07862F972F2F3D3F4C3CF00895E6
:100A600084E690E0089580E090E008958CE99FEF9F
:100A700008950F931F93CF93DF93C82FD92F062F7D
:100A8000172FCC9FB001CD9F700D700D1124009FCA
:100A9000C001019F900D900D1124680F791F072E42
:100AA000000C880B990B0E9410090E94330A20E069
:100AB00030E040EA50E40E94610881151CF1CE014B
:100AC000DD238CF00817190724F59801112384F011
:100AD0002817390794F01123FCF082E090E02C17DE
:100AE0003D0794F011C0882799278C1B9D0BEACFF6
:100AF00022273327201B310BEBCF81E090E0DD2351
:100B000064F702C080E090E0DF91CF911F910F91D8
:100B1000089583E090E0F8CF84E090E0F5CF682F6F
:100B200070E080E090E00E940E0920E030E040E8B4
:100B30005BE30E94C00920E030E048EC52E40E94F0
:100B4000C0090E94D808862F972F089587B3886B15
:100B500087BBC49AC39A80E58DB9709808958FB900
:100B6000779BFECF8FB1089598B321E030E002C0AB
:100B7000220F331F8A95E2F72095292328BB089579
:100B800098B321E030E002C0220F331F8A95E2F7CC
:100B9000922B98BB0895CF93DF93C82F0E94B40582
:100BA00080E00E94AF05D82F8C2F0E94C0058D2FAA
:100BB000DF91CF910895CF93DF93D82FC62F862F43
:100BC0000E94B4058D2F0E94AF058C2F0E94C00596
:100BD000DF91CF910895C19863E00E94DB050895ED
:100BE000C19A63E00E94DB050895883008F087E031
:100BF000806B0E94EB050895CF93C82F803808F0D2
:100C0000CFE78C2F8F700E94EB058C2F82958F7011
:100C100080610E94EB05CF9108950F931F93CF93AE
:100C2000DF93082F80320CF40FE3005210E0000F26
:100C3000111F000F111F000F111FE801C953DC4FD6
:100C400001531C4FFE0184910E94F0052196C017AC
:100C5000D107C1F7DF91CF911F910F910895CF93E5
:100C6000DF93D0EB8D2F0E94EB0580E00E94EB0517
:100C700080E10E94EB05C0E880E00E94F005C150D1
:100C8000C111FACFDF5FD83B69F7DF91CF910895AB
:100C9000B99A81EA0E94EB0588EC0E94EB058FEA85
:100CA0000E94EB050E942F060895CF93DF93C82F73
:100CB000D92F8881811531F021960E940D068991E6
:100CC0008111FBCFDF91CF9108951F93CF93DF93D5
:100CD00084E00E94B40584E00E94AF058DE08A950F
:100CE000F1F7000080E00E94AF05182F00C000C09F
:100CF000000080E00E94AF05D82F00C000C00000B7
:100D000080E00E94AF05C82F84E00E94C005612FDB
:100D10007D2F8C2FDF91CF911F9108951F93CF933B
:100D2000DF9384E00E94B40583E00E94AF058DE06C
:100D30008A95F1F7000080E00E94AF05182F00C0EF
:100D400000C0000080E00E94AF05D82F00C000C0A6
:100D5000000080E00E94AF05C82F84E00E94C0051B
:100D6000612F7D2F8C2FDF91CF911F9108951F93BD
:100D7000CF93DF9384E00E94B40581E00E94AF0529
:100D80008DE08A95F1F7000080E00E94AF05182FF2
:100D900000C000C0000080E00E94AF05D82F00C056
:100DA00000C0000080E00E94AF05C82F84E00E94D0
:100DB000C005612F7D2F8C2FDF91CF911F9108955A
:100DC000CF93DF9384E00E94B40582E00E94AF05D8
:100DD0008DE08A95F1F7000080E00E94AF05D82FE2
:100DE00000C000C0000080E00E94AF05C82F84E072
:100DF0000E94C0058D2F9C2FDF91CF910895CF9336
:100E0000DF93D82FC62F84E00E94B40585E00E94AE
:100E1000AF058DE08A95F1F700008D2F0E94AF0598
:100E200000C000C000008C2F0E94AF0584E00E942B
:100E3000C005DF91CF910895CF93DF93D82FC62FB0
:100E400084E00E94B40586E00E94AF058DE08A959B
:100E5000F1F700008D2F0E94AF0500C000C0000018
:100E60008C2F0E94AF0584E00E94C005DF91CF91D6
:100E70000895CF93DF93CDB7DEB72E970FB6F894D2
:100E8000DEBF0FBECDBF8EE0E6E1F1E0DE011196E0
:100E900001900D928A95E1F791E0D12C00E0CC24ED
:100EA000C3943BC00E942F069E012F5F3F4F7901E4
:100EB00010E012C089E092E00E94550604C08FE065
:100EC00092E00E945506F701819191917F010E9465
:100ED00055061F5F173019F1812F0E94F50580E03C
:100EE0000E94FC050113EBCF31E0D31619F38CE01F
:100EF00092E00E945506E7CFFFE926E831E0F15085
:100F000020403040E1F700C000009C2DD12CE7E8E4
:100F1000F3E13197F1F700C00000913019F20E941F
:100F20006506982F947082FF05C00F5F073020F38D
:100F300000E0E2CF84FF11C0011569F001508FE994
:100F4000E6E8F1E08150E040F040E1F700C0000049
:100F5000D92E9C2DDCCF06E0F2CF982F917080FF28
:100F6000D6CF2FE936E881E0215030408040E1F7CC
:100F700000C00000D92ECBCF0E946506672B682BDE
:100F8000611529F061E080E00E94FF06089560E0AD
:100F900080E00E94FF06089597FB072E16F4009448
:100FA00007D077FD09D00E94E00707FC05D03EF48A
:100FB000909581959F4F0895709561957F4F089505
:100FC000AA1BBB1B51E107C0AA1FBB1FA617B7076F
:100FD00010F0A61BB70B881F991F5A95A9F780958B
:100FE0009095BC01CD0108955058BB27AA270E94B7
:100FF0000C080C9486090E94780938F00E947F0939
:1010000020F039F49F3F19F426F40C9475090EF47E
:10101000E095E7FB0C946F09E92F0E94970958F3BC
:10102000BA17620773078407950720F079F4A6F5CD
:101030000C94B9090EF4E0950B2EBA2FA02D0B01DC
:10104000B90190010C01CA01A0011124FF27591B0D
:1010500099F0593F50F4503E68F11A16F040A22F13
:10106000232F342F4427585FF3CF46953795279584
:10107000A795F0405395C9F77EF41F16BA0B620B83
:10108000730B840BBAF09150A1F0FF0FBB1F661FCA
:10109000771F881FC2F70EC0BA0F621F731F841F0D
:1010A00048F4879577956795B795F7959E3F08F033
:1010B000B0CF9395880F08F09927EE0F97958795F5
:1010C00008950E944B0908F481E008950E947A086F
:1010D0000C9486090E947F0958F00E94780940F01C
:1010E00029F45F3F29F00C946F0951110C94BA094F
:1010F0000C9475090E94970968F39923B1F355235D
:1011000091F3951B550BBB27AA276217730784071A
:1011100038F09F5F5F4F220F331F441FAA1FA9F3B0
:1011200035D00E2E3AF0E0E832D091505040E6959E
:10113000001CCAF72BD0FE2F29D0660F771F881FFF
:10114000BB1F261737074807AB07B0E809F0BB0BF2
:10115000802DBF01FF2793585F4F3AF09E3F510506
:1011600078F00C946F090C94BA095F3FE4F3983E51
:10117000D4F3869577956795B795F7959F5FC9F7EF
:10118000880F911D9695879597F90895E1E0660F70
:10119000771F881FBB1F621773078407BA0720F0E9
:1011A000621B730B840BBA0BEE1F88F7E095089552
:1011B0000E94DF086894B1110C94BA0908950E9446
:1011C0009F0988F09F5798F0B92F9927B751B0F031
:1011D000E1F0660F771F881F991F1AF0BA95C9F7BB
:1011E00014C0B13091F00E94B909B1E008950C9497
:1011F000B909672F782F8827B85F39F0B93FCCF34A
:10120000869577956795B395D9F73EF49095809537
:10121000709561957F4F8F4F9F4F0895E89409C057
:1012200097FB3EF490958095709561957F4F8F4F19
:101230009F4F9923A9F0F92F96E9BB279395F6952F
:10124000879577956795B795F111F8CFFAF4BB0FAD
:1012500011F460FF1BC06F5F7F4F8F4F9F4F16C011
:10126000882311F096E911C0772321F09EE8872F9B
:10127000762F05C0662371F096E8862F70E060E057
:101280002AF09A95660F771F881FDAF7880F9695D0
:10129000879597F90895990F0008550FAA0BE0E874
:1012A000FEEF16161706E807F907C0F01216130628
:1012B000E407F50798F0621B730B840B950B39F468
:1012C0000A2661F0232B242B252B21F408950A26CE
:1012D00009F4A140A6958FEF811D811D089597F90E
:1012E0009F6780E870E060E008959FEF80EC0895CC
:1012F00000240A94161617061806090608950024F5
:101300000A9412161306140605060895092E03946E
:10131000000C11F4882352F0BB0F40F4BF2B11F4E2
:1013200060FF04C06F5F7F4F8F4F9F4F089557FD41
:101330009058440F551F59F05F3F71F04795880F43
:1013400097FB991F61F09F3F79F0879508951216DA
:1013500013061406551FF2CF4695F1DF08C0161686
:1013600017061806991FF1CF869571056105089437
:101370000895E894BB2766277727CB0197F908954E
:101380000E94D3090C9486090E94780938F00E94C3
:101390007F0920F0952311F00C946F090C947509C6
:1013A00011240C94BA090E94970970F3959FC1F318
:1013B000950F50E0551F629FF001729FBB27F00D03
:1013C000B11D639FAA27F00DB11DAA1F649F662758
:1013D000B00DA11D661F829F2227B00DA11D621FA7
:1013E000739FB00DA11D621F839FA00D611D221F61
:1013F000749F3327A00D611D231F849F600D211D45
:10140000822F762F6A2F11249F5750409AF0F1F0C7
:1014100088234AF0EE0FFF1FBB1F661F771F881F30
:1014200091505040A9F79E3F510580F00C946F09F0
:101430000C94BA095F3FE4F3983ED4F38695779510
:101440006795B795F795E7959F5FC1F7FE2B880FD6
:10145000911D9695879597F9089519F416F40C94B3
:1014600075090C94730A0E949F09B8F39923C9F374
:10147000B6F39F57550B87FF0E94810A0024A0E610
:1014800040EA900180585695979528F4805C660F45
:10149000771F881F20F026173707480730F4621B94
:1014A000730B840B202931294A2BA6951794079496
:1014B000202531254A2758F7660F771F881F20F00F
:1014C00026173707480730F4620B730B840B200D87
:1014D000311D411DA09581F7B901842F9158880FC6
:1014E0009695879508959F3F31F0915020F4879508
:1014F00077956795B795880F911D9695879597F97C
:10150000089591505040660F771F881FD2F70895B5
:101510008F929F92AF92BF92CF92DF92EF92FF9203
:10152000CF93DF93EC01688179818A819B8161157A
:1015300071058105910521F464E279ED8BE597E071
:101540002DE133EF41E050E00E94B50D49015A0111
:101550009B01AC01A7EAB1E40E94D40D6B017C01B0
:10156000ACEEB4EFA50194010E94E20DDC01CB01C9
:101570008C0D9D1DAE1DBF1DB7FF03C00197A109B6
:10158000B04888839983AA83BB839F77DF91CF91EB
:10159000FF90EF90DF90CF90BF90AF909F908F9093
:1015A00008950E94880A089582E191E00E94880AC5
:1015B0000895A0E0B0E08093120190931301A093EE
:1015C0001401B09315010895A0E0B0E0EAEEFAE04E
:1015D0000C94F70DAE014B5F5F4FFA016191719171
:1015E000AF0180914C0290914D020E94260BE2E0E7
:1015F0000C94130E0F931F93CF93DF93E0914C0243
:10160000F0914D02238100E010E021FD0EC00FEFAC
:101610001FEFC801DF91CF911F910F910895099598
:10162000892B11F00FEF1FEFCE01EC018991609132
:101630004C0270914D02DB011896ED91FC918111E5
:10164000EECF8AE00995892B21F3E1CFABE0B0E042
:10165000ECE2FBE00C94EA0D6C017B018A01FC01D9
:1016600017821682838181FFD9C19AE0592EF60133
:101670002381F70123FD859123FF81917F0181154E
:1016800009F41FC1853239F423FD959123FF91910F
:101690007F01953229F4B60190E00E94270DE7CF33
:1016A00030E0912C612C712CF0E27F1640F59B32DA
:1016B000D9F058F49032D1F09332F1F09E3299F58E
:1016C00076FCFFC0689476F806C09D3291F09033A6
:1016D000C1F4689470F8F70123FD959123FF91916F
:1016E0007F019111E1CF29C0689471F8689472F874
:1016F000F2CF689473F8EFCF689474F8ECCF77FC6E
:101700001CC080ED890F8A30C8F676FE05C0959C16
:10171000800D1124982EDFCF659C800D1124682E3A
:10172000689475F8D8CF9C3619F4689477F8D3CFBD
:101730009C3409F44BC0983671F2892F8F7D855403
:10174000833008F445C0933609F466C0933709F432
:1017500069C0933509F475C0943619F0993609F0CB
:101760009FC0F80177FE95C061917191819191912F
:101770008F01272D2F76822E97FF09C09095809597
:10178000709561957F4F8F4F9F4F689487F82AE03F
:1017900030E0AE014F5F5F4F5A010E94570D8A192A
:1017A000A82E86FEC4C0882D8E7FA91408F0BEC066
:1017B00084FE11C182FC05C1F82DFE7E8F2EB92C4E
:1017C000882D8678811509F4BFC000C131E083CF30
:1017D0003115F9F0085F1F4F8FE3898388248394C4
:1017E000912CAE014F5F5F4F5A01E89477F873FC7C
:1017F00003C086149104B0F181149104D1F56114F1
:1018000009F435CFB60180E290E00E94270D6A947A
:10181000F6CF0C5F1F4FE0CFF801808189830E5F08
:101820001F4FDCCFF801A190B1908F01692D70E0BE
:1018300076FC02C06FEF7FEFC5010E941C0D4C01CA
:10184000D4CFF801A190B1908F01692D70E076FCA2
:1018500002C06FEF7FEFC5010E94110D4C0168942B
:1018600077F8C5CFB60180E290E00E94270D6A9418
:10187000C0CFF50177FC859177FE81915F01B601BC
:1018800090E00E94270D61106A94F1E08F1A910890
:10189000B3CF61917191072E000C880B990B68CF23
:1018A000872CE89484F82AE030E0953739F1572DF9
:1018B000597F852E903799F058F49835A9F09F36C6
:1018C000D9F0F601868197812B96EFE00C94060EF5
:1018D0009837B9F774FC05C020E130E00FC0689478
:1018E00084F8689482F8F8CF74FE03C0872D866070
:1018F000882E20E132E002C028E030E0F80187FEC7
:1019000010C061917191819191918F01FE01319689
:101910005F01AF010E94570D8A19A82EE89487F83D
:1019200040CF6191719180E090E0EFCF882EBA2C8A
:1019300084FE46CFFE01EA0DF11D8081803309F05F
:1019400043C0282D297E822E83FC0EC080FE4FC00E
:101950009A2CB61418F4960C9B18B62C862D8B195D
:101960006B1408F480E0B80EB61408F042C06B188F
:1019700084FE41C0B60180E390E00E94270D82FE04
:1019800009C088E590E081FC02C088E790E0B601DC
:101990000E94270DA914D8F1AA94B12C4FEFA41AD4
:1019A000B40ACE0101964C01A80EB91EF501829130
:1019B0005F01B60190E00E94270D8A149B04B1F7E5
:1019C0001ECFB92C882EB6CF82FC02C0B394BCCFF8
:1019D000B394B394B9CFB92C882EF2CEB60180E27D
:1019E00090E00E94270D73947614C0F3B7CF7B2C40
:1019F000FBCF612CBDCF882D8678811559F280E20E
:101A000081FC8BE287FC8DE2B60190E0C1CFB6018C
:101A100080E390E00E94270D9A94BCCF8FEF9FEF58
:101A200053CFFC010590615070400110D8F78095AC
:101A300090958E0F9F1F0895FC016150704001909A
:101A40000110D8F7809590958E0F9F1F08950F93E2
:101A50001F93CF93DF93182F092FEB018B8181FD0B
:101A600009C01FEF0FEF812F902FDF91CF911F91B2
:101A70000F91089582FF14C02E813F818C819D813A
:101A8000281739073CF4E881F981CF010196998341
:101A9000888310838E819F8101969F838E83E3CFFD
:101AA000E885F985812F0995892BA1F3DACFFA0111
:101AB000AA27283051F1203181F1E8946F936E7F8D
:101AC0006E5F7F4F8F4F9F4FAF4FB1E03ED0B4E07E
:101AD0003CD0670F781F891F9A1FA11D680F791FBF
:101AE0008A1F911DA11D6A0F711D811D911DA11DD0
:101AF00020D009F468943F912AE0269F11243019E0
:101B0000305D3193DEF6CF010895462F4770405D7A
:101B10004193B3E00FD0C9F7F6CF462F4F70405D29
:101B20004A3318F0495D31FD4052419302D0A9F784
:101B3000EACFB4E0A6959795879577956795BA957E
:101B4000C9F700976105710508959B01AC010A2E44
:101B500006945795479537952795BA95C9F7620F1B
:101B6000731F841F951FA01D0895052E97FB1EF45B
:101B700000940E94CC0D57FD07D00E941E0E07FC5A
:101B800003D04EF40C94CC0D509540953095219592
:101B90003F4F4F4F5F4F0895909580957095619599
:101BA0007F4F8F4F9F4F08950E94400EA59F900D2D
:101BB000B49F900DA49F800D911D11240895B7FF2F
:101BC0000C94D40D0E94D40D821B930B08952F9278
:101BD0003F924F925F926F927F928F929F92AF92BD
:101BE000BF92CF92DF92EF92FF920F931F93CF930A
:101BF000DF93CDB7DEB7CA1BDB0B0FB6F894DEBFA1
:101C00000FBECDBF09942A88398848885F846E84C6
:101C10007D848C849B84AA84B984C884DF80EE8010
:101C2000FD800C811B81AA81B981CE0FD11D0FB619
:101C3000F894DEBF0FBECDBFED010895A1E21A2ECC
:101C4000AA1BBB1BFD010DC0AA1FBB1FEE1FFF1F60
:101C5000A217B307E407F50720F0A21BB30BE40BB0
:101C6000F50B661F771F881F991F1A9469F76095F7
:101C70007095809590959B01AC01BD01CF010895B1
:101C8000A29FB001B39FC001A39F700D811D1124BD
:101C9000911DB29F700D811D1124911D0895F8941E
:021CA000FFCF74
:101CA2000000000300000000A003AF0300000018C2
:101CB20000100100000012021A0222022A0232025D
:101CC2003A0242025374617274696E672053524140
:101CD2004D20746573742E2E2E0057726974652020
:101CE2007068617365206572726F723A20657874EC
:101CF2005F72616D5B2534645D203D202530325872
:101D0200202873686F756C64206265202530325814
:101D1200290A0052657472696576616C2070686187
:101D22007365206572726F723A206578745F7261B2
:101D32006D5B2534645D203D2025303258202873A8
:101D4200686F756C642062652025303258290A005C
:101D52005352414D207465737420636F6D706C65CE
:101D62007465642077697468200A2534642065727A
:101D7200726F727320696E20777269746520706861
:101D820061736520616E64200A2534642065727275
:101D92006F727320696E2072657472696576616C08
:101DA2002070686173650A0A007820003E200020D6
:101DB20020006D656E75283029006D656E752831BD
:101DC20029006D656E75283229006D656E752833A0
:101DD20029006D656E75283429006D656E7528358C
:0A1DE20029006D656E752836290092
:00000001FF
